{
  "_format": "hh-sol-artifact-1",
  "contractName": "UserRegistry",
  "sourceName": "contracts/UserRegistry.sol",
  "abi": [
    {
      "inputs": [],
      "stateMutability": "nonpayable",
      "type": "constructor"
    },
    {
      "inputs": [
        {
          "internalType": "address",
          "name": "owner",
          "type": "address"
        }
      ],
      "name": "OwnableInvalidOwner",
      "type": "error"
    },
    {
      "inputs": [
        {
          "internalType": "address",
          "name": "account",
          "type": "address"
        }
      ],
      "name": "OwnableUnauthorizedAccount",
      "type": "error"
    },
    {
      "anonymous": false,
      "inputs": [
        {
          "indexed": true,
          "internalType": "address",
          "name": "previousOwner",
          "type": "address"
        },
        {
          "indexed": true,
          "internalType": "address",
          "name": "newOwner",
          "type": "address"
        }
      ],
      "name": "OwnershipTransferred",
      "type": "event"
    },
    {
      "anonymous": false,
      "inputs": [
        {
          "indexed": true,
          "internalType": "address",
          "name": "user",
          "type": "address"
        },
        {
          "indexed": false,
          "internalType": "bytes",
          "name": "data",
          "type": "bytes"
        }
      ],
      "name": "UserRegistered",
      "type": "event"
    },
    {
      "inputs": [
        {
          "internalType": "address",
          "name": "userAddress",
          "type": "address"
        }
      ],
      "name": "getUser",
      "outputs": [
        {
          "internalType": "bytes",
          "name": "",
          "type": "bytes"
        }
      ],
      "stateMutability": "view",
      "type": "function"
    },
    {
      "inputs": [],
      "name": "owner",
      "outputs": [
        {
          "internalType": "address",
          "name": "",
          "type": "address"
        }
      ],
      "stateMutability": "view",
      "type": "function"
    },
    {
      "inputs": [
        {
          "internalType": "bytes",
          "name": "data",
          "type": "bytes"
        }
      ],
      "name": "registerUser",
      "outputs": [],
      "stateMutability": "nonpayable",
      "type": "function"
    },
    {
      "inputs": [],
      "name": "renounceOwnership",
      "outputs": [],
      "stateMutability": "nonpayable",
      "type": "function"
    },
    {
      "inputs": [
        {
          "internalType": "address",
          "name": "newOwner",
          "type": "address"
        }
      ],
      "name": "transferOwnership",
      "outputs": [],
      "stateMutability": "nonpayable",
      "type": "function"
    }
  ],
  "bytecode": "0x608060405234801561001057600080fd5b5033600073ffffffffffffffffffffffffffffffffffffffff168173ffffffffffffffffffffffffffffffffffffffff16036100845760006040517f1e4fbdf700000000000000000000000000000000000000000000000000000000815260040161007b919061019e565b60405180910390fd5b6100938161009960201b60201c565b506101b9565b60008060009054906101000a900473ffffffffffffffffffffffffffffffffffffffff169050816000806101000a81548173ffffffffffffffffffffffffffffffffffffffff021916908373ffffffffffffffffffffffffffffffffffffffff1602179055508173ffffffffffffffffffffffffffffffffffffffff168173ffffffffffffffffffffffffffffffffffffffff167f8be0079c531659141344cd1fd0a4f28419497f9722a3daafe3b4186f6b6457e060405160405180910390a35050565b600073ffffffffffffffffffffffffffffffffffffffff82169050919050565b60006101888261015d565b9050919050565b6101988161017d565b82525050565b60006020820190506101b3600083018461018f565b92915050565b610c97806101c86000396000f3fe608060405234801561001057600080fd5b50600436106100575760003560e01c80630a38178c1461005c5780636f77926b14610078578063715018a6146100a85780638da5cb5b146100b2578063f2fde38b146100d0575b600080fd5b6100766004803603810190610071919061061e565b6100ec565b005b610092600480360381019061008d91906106c9565b61021d565b60405161009f9190610786565b60405180910390f35b6100b0610399565b005b6100ba6103ad565b6040516100c791906107b7565b60405180910390f35b6100ea60048036038101906100e591906106c9565b6103d6565b005b6000600160003373ffffffffffffffffffffffffffffffffffffffff1673ffffffffffffffffffffffffffffffffffffffff168152602001908152602001600020805461013890610801565b90501461017a576040517f08c379a00000000000000000000000000000000000000000000000000000000081526004016101719061088f565b60405180910390fd5b8181600160003373ffffffffffffffffffffffffffffffffffffffff1673ffffffffffffffffffffffffffffffffffffffff16815260200190815260200160002091826101c8929190610a9f565b503373ffffffffffffffffffffffffffffffffffffffff167fb4e474a799db1c21852b730a8ac43394df2133bba1b219242c78954109a980a18383604051610211929190610bab565b60405180910390a25050565b60608173ffffffffffffffffffffffffffffffffffffffff163373ffffffffffffffffffffffffffffffffffffffff16148061028b57503373ffffffffffffffffffffffffffffffffffffffff166102736103ad565b73ffffffffffffffffffffffffffffffffffffffff16145b6102ca576040517f08c379a00000000000000000000000000000000000000000000000000000000081526004016102c190610c41565b60405180910390fd5b600160008373ffffffffffffffffffffffffffffffffffffffff1673ffffffffffffffffffffffffffffffffffffffff168152602001908152602001600020805461031490610801565b80601f016020809104026020016040519081016040528092919081815260200182805461034090610801565b801561038d5780601f106103625761010080835404028352916020019161038d565b820191906000526020600020905b81548152906001019060200180831161037057829003601f168201915b50505050509050919050565b6103a161045c565b6103ab60006104e3565b565b60008060009054906101000a900473ffffffffffffffffffffffffffffffffffffffff16905090565b6103de61045c565b600073ffffffffffffffffffffffffffffffffffffffff168173ffffffffffffffffffffffffffffffffffffffff16036104505760006040517f1e4fbdf700000000000000000000000000000000000000000000000000000000815260040161044791906107b7565b60405180910390fd5b610459816104e3565b50565b6104646105a7565b73ffffffffffffffffffffffffffffffffffffffff166104826103ad565b73ffffffffffffffffffffffffffffffffffffffff16146104e1576104a56105a7565b6040517f118cdaa70000000000000000000000000000000000000000000000000000000081526004016104d891906107b7565b60405180910390fd5b565b60008060009054906101000a900473ffffffffffffffffffffffffffffffffffffffff169050816000806101000a81548173ffffffffffffffffffffffffffffffffffffffff021916908373ffffffffffffffffffffffffffffffffffffffff1602179055508173ffffffffffffffffffffffffffffffffffffffff168173ffffffffffffffffffffffffffffffffffffffff167f8be0079c531659141344cd1fd0a4f28419497f9722a3daafe3b4186f6b6457e060405160405180910390a35050565b600033905090565b600080fd5b600080fd5b600080fd5b600080fd5b600080fd5b60008083601f8401126105de576105dd6105b9565b5b8235905067ffffffffffffffff8111156105fb576105fa6105be565b5b602083019150836001820283011115610617576106166105c3565b5b9250929050565b60008060208385031215610635576106346105af565b5b600083013567ffffffffffffffff811115610653576106526105b4565b5b61065f858286016105c8565b92509250509250929050565b600073ffffffffffffffffffffffffffffffffffffffff82169050919050565b60006106968261066b565b9050919050565b6106a68161068b565b81146106b157600080fd5b50565b6000813590506106c38161069d565b92915050565b6000602082840312156106df576106de6105af565b5b60006106ed848285016106b4565b91505092915050565b600081519050919050565b600082825260208201905092915050565b60005b83811015610730578082015181840152602081019050610715565b60008484015250505050565b6000601f19601f8301169050919050565b6000610758826106f6565b6107628185610701565b9350610772818560208601610712565b61077b8161073c565b840191505092915050565b600060208201905081810360008301526107a0818461074d565b905092915050565b6107b18161068b565b82525050565b60006020820190506107cc60008301846107a8565b92915050565b7f4e487b7100000000000000000000000000000000000000000000000000000000600052602260045260246000fd5b6000600282049050600182168061081957607f821691505b60208210810361082c5761082b6107d2565b5b50919050565b600082825260208201905092915050565b7f5573657220616c72656164792072656769737465726564000000000000000000600082015250565b6000610879601783610832565b915061088482610843565b602082019050919050565b600060208201905081810360008301526108a88161086c565b9050919050565b600082905092915050565b7f4e487b7100000000000000000000000000000000000000000000000000000000600052604160045260246000fd5b60008190508160005260206000209050919050565b60006020601f8301049050919050565b600082821b905092915050565b60006008830261094b7fffffffffffffffffffffffffffffffffffffffffffffffffffffffffffffffff8261090e565b610955868361090e565b95508019841693508086168417925050509392505050565b6000819050919050565b6000819050919050565b600061099c6109976109928461096d565b610977565b61096d565b9050919050565b6000819050919050565b6109b683610981565b6109ca6109c2826109a3565b84845461091b565b825550505050565b600090565b6109df6109d2565b6109ea8184846109ad565b505050565b5b81811015610a0e57610a036000826109d7565b6001810190506109f0565b5050565b601f821115610a5357610a24816108e9565b610a2d846108fe565b81016020851015610a3c578190505b610a50610a48856108fe565b8301826109ef565b50505b505050565b600082821c905092915050565b6000610a7660001984600802610a58565b1980831691505092915050565b6000610a8f8383610a65565b9150826002028217905092915050565b610aa983836108af565b67ffffffffffffffff811115610ac257610ac16108ba565b5b610acc8254610801565b610ad7828285610a12565b6000601f831160018114610b065760008415610af4578287013590505b610afe8582610a83565b865550610b66565b601f198416610b14866108e9565b60005b82811015610b3c57848901358255600182019150602085019450602081019050610b17565b86831015610b595784890135610b55601f891682610a65565b8355505b6001600288020188555050505b50505050505050565b82818337600083830152505050565b6000610b8a8385610701565b9350610b97838584610b6f565b610ba08361073c565b840190509392505050565b60006020820190508181036000830152610bc6818486610b7e565b90509392505050565b7f596f752063616e206f6e6c7920726574726965766520796f7572206f776e206460008201527f6174610000000000000000000000000000000000000000000000000000000000602082015250565b6000610c2b602383610832565b9150610c3682610bcf565b604082019050919050565b60006020820190508181036000830152610c5a81610c1e565b905091905056fea2646970667358221220e8ba8215cd89cbb74442168d9e9877b920d35f240d4b932cff3e80f8f9956ecb64736f6c63430008180033",
  "linkReferences": {},
  "deployedLinkReferences": {}
}