{
  "_format": "hh-sol-artifact-1",
  "contractName": "LocationRegistry",
  "sourceName": "contracts/LocationRegistry.sol",
  "abi": [
    {
      "inputs": [],
      "stateMutability": "nonpayable",
      "type": "constructor"
    },
    {
      "inputs": [
        {
          "internalType": "address",
          "name": "owner",
          "type": "address"
        }
      ],
      "name": "OwnableInvalidOwner",
      "type": "error"
    },
    {
      "inputs": [
        {
          "internalType": "address",
          "name": "account",
          "type": "address"
        }
      ],
      "name": "OwnableUnauthorizedAccount",
      "type": "error"
    },
    {
      "anonymous": false,
      "inputs": [
        {
          "indexed": true,
          "internalType": "address",
          "name": "service",
          "type": "address"
        },
        {
          "indexed": false,
          "internalType": "string",
          "name": "serviceId",
          "type": "string"
        }
      ],
      "name": "EmergencyServiceAuthorized",
      "type": "event"
    },
    {
      "anonymous": false,
      "inputs": [
        {
          "indexed": true,
          "internalType": "address",
          "name": "service",
          "type": "address"
        }
      ],
      "name": "EmergencyServiceRevoked",
      "type": "event"
    },
    {
      "anonymous": false,
      "inputs": [
        {
          "indexed": true,
          "internalType": "address",
          "name": "user",
          "type": "address"
        },
        {
          "indexed": true,
          "internalType": "address",
          "name": "emergencyService",
          "type": "address"
        },
        {
          "indexed": true,
          "internalType": "bytes32",
          "name": "locationHash",
          "type": "bytes32"
        },
        {
          "indexed": false,
          "internalType": "string",
          "name": "incidentId",
          "type": "string"
        }
      ],
      "name": "LocationAccessLogged",
      "type": "event"
    },
    {
      "anonymous": false,
      "inputs": [
        {
          "indexed": true,
          "internalType": "address",
          "name": "previousOwner",
          "type": "address"
        },
        {
          "indexed": true,
          "internalType": "address",
          "name": "newOwner",
          "type": "address"
        }
      ],
      "name": "OwnershipTransferred",
      "type": "event"
    },
    {
      "inputs": [
        {
          "internalType": "address",
          "name": "serviceAddress",
          "type": "address"
        },
        {
          "internalType": "string",
          "name": "serviceId",
          "type": "string"
        }
      ],
      "name": "authorizeEmergencyService",
      "outputs": [],
      "stateMutability": "nonpayable",
      "type": "function"
    },
    {
      "inputs": [
        {
          "internalType": "address",
          "name": "userAddress",
          "type": "address"
        },
        {
          "internalType": "bytes32[]",
          "name": "locationHashes",
          "type": "bytes32[]"
        },
        {
          "internalType": "string[]",
          "name": "incidentIds",
          "type": "string[]"
        }
      ],
      "name": "batchStoreLocationAccessHash",
      "outputs": [],
      "stateMutability": "nonpayable",
      "type": "function"
    },
    {
      "inputs": [
        {
          "internalType": "address",
          "name": "userAddress",
          "type": "address"
        },
        {
          "internalType": "uint256",
          "name": "offset",
          "type": "uint256"
        },
        {
          "internalType": "uint256",
          "name": "limit",
          "type": "uint256"
        }
      ],
      "name": "getLocationAccessLogs",
      "outputs": [
        {
          "components": [
            {
              "internalType": "bytes32",
              "name": "locationHash",
              "type": "bytes32"
            },
            {
              "internalType": "address",
              "name": "emergencyService",
              "type": "address"
            },
            {
              "internalType": "string",
              "name": "incidentId",
              "type": "string"
            },
            {
              "internalType": "uint256",
              "name": "timestamp",
              "type": "uint256"
            }
          ],
          "internalType": "struct LocationRegistry.LocationAccessLog[]",
          "name": "",
          "type": "tuple[]"
        }
      ],
      "stateMutability": "view",
      "type": "function"
    },
    {
      "inputs": [
        {
          "internalType": "address",
          "name": "userAddress",
          "type": "address"
        }
      ],
      "name": "getLocationHashCount",
      "outputs": [
        {
          "internalType": "uint256",
          "name": "",
          "type": "uint256"
        }
      ],
      "stateMutability": "view",
      "type": "function"
    },
    {
      "inputs": [
        {
          "internalType": "address",
          "name": "serviceAddress",
          "type": "address"
        }
      ],
      "name": "getServiceId",
      "outputs": [
        {
          "internalType": "string",
          "name": "",
          "type": "string"
        }
      ],
      "stateMutability": "view",
      "type": "function"
    },
    {
      "inputs": [
        {
          "internalType": "address",
          "name": "serviceAddress",
          "type": "address"
        }
      ],
      "name": "isAuthorizedEmergencyService",
      "outputs": [
        {
          "internalType": "bool",
          "name": "",
          "type": "bool"
        }
      ],
      "stateMutability": "view",
      "type": "function"
    },
    {
      "inputs": [],
      "name": "owner",
      "outputs": [
        {
          "internalType": "address",
          "name": "",
          "type": "address"
        }
      ],
      "stateMutability": "view",
      "type": "function"
    },
    {
      "inputs": [],
      "name": "renounceOwnership",
      "outputs": [],
      "stateMutability": "nonpayable",
      "type": "function"
    },
    {
      "inputs": [
        {
          "internalType": "address",
          "name": "serviceAddress",
          "type": "address"
        }
      ],
      "name": "revokeEmergencyService",
      "outputs": [],
      "stateMutability": "nonpayable",
      "type": "function"
    },
    {
      "inputs": [
        {
          "internalType": "address",
          "name": "userAddress",
          "type": "address"
        },
        {
          "internalType": "bytes32",
          "name": "locationHash",
          "type": "bytes32"
        },
        {
          "internalType": "string",
          "name": "incidentId",
          "type": "string"
        }
      ],
      "name": "storeLocationAccessHash",
      "outputs": [],
      "stateMutability": "nonpayable",
      "type": "function"
    },
    {
      "inputs": [
        {
          "internalType": "address",
          "name": "newOwner",
          "type": "address"
        }
      ],
      "name": "transferOwnership",
      "outputs": [],
      "stateMutability": "nonpayable",
      "type": "function"
    },
    {
      "inputs": [
        {
          "internalType": "address",
          "name": "userAddress",
          "type": "address"
        },
        {
          "internalType": "bytes32",
          "name": "locationHash",
          "type": "bytes32"
        },
        {
          "internalType": "address",
          "name": "emergencyService",
          "type": "address"
        }
      ],
      "name": "verifyLocationAccess",
      "outputs": [
        {
          "internalType": "bool",
          "name": "",
          "type": "bool"
        }
      ],
      "stateMutability": "view",
      "type": "function"
    }
  ],
  "bytecode": "0x60806040523480156200001157600080fd5b5033600073ffffffffffffffffffffffffffffffffffffffff168173ffffffffffffffffffffffffffffffffffffffff1603620000885760006040517f1e4fbdf70000000000000000000000000000000000000000000000000000000081526004016200007f9190620001a9565b60405180910390fd5b6200009981620000a060201b60201c565b50620001c6565b60008060009054906101000a900473ffffffffffffffffffffffffffffffffffffffff169050816000806101000a81548173ffffffffffffffffffffffffffffffffffffffff021916908373ffffffffffffffffffffffffffffffffffffffff1602179055508173ffffffffffffffffffffffffffffffffffffffff168173ffffffffffffffffffffffffffffffffffffffff167f8be0079c531659141344cd1fd0a4f28419497f9722a3daafe3b4186f6b6457e060405160405180910390a35050565b600073ffffffffffffffffffffffffffffffffffffffff82169050919050565b6000620001918262000164565b9050919050565b620001a38162000184565b82525050565b6000602082019050620001c0600083018462000198565b92915050565b61287780620001d66000396000f3fe608060405234801561001057600080fd5b50600436106100b35760003560e01c80638da5cb5b116100715780638da5cb5b1461017657806392eb1bb514610194578063ae0cbca8146101c4578063bc2733d7146101f4578063de29ad4014610210578063f2fde38b14610240576100b3565b80620143c1146100b85780631f797f27146100e857806321d2af831461011857806349cb5d1b14610134578063715018a614610150578063740d1e6f1461015a575b600080fd5b6100d260048036038101906100cd91906117e6565b61025c565b6040516100df9190611854565b60405180910390f35b61010260048036038101906100fd919061186f565b610302565b60405161010f919061192c565b60405180910390f35b610132600480360381019061012d919061186f565b61045f565b005b61014e60048036038101906101499190611a09565b6105dc565b005b610158610b91565b005b610174600480360381019061016f9190611af4565b610ba5565b005b61017e610f9b565b60405161018b9190611b77565b60405180910390f35b6101ae60048036038101906101a9919061186f565b610fc4565b6040516101bb9190611854565b60405180910390f35b6101de60048036038101906101d99190611bc8565b61101a565b6040516101eb9190611db7565b60405180910390f35b61020e60048036038101906102099190611dd9565b6112cc565b005b61022a6004803603810190610225919061186f565b611485565b6040516102379190611e48565b60405180910390f35b61025a6004803603810190610255919061186f565b6114d1565b005b6000600460008573ffffffffffffffffffffffffffffffffffffffff1673ffffffffffffffffffffffffffffffffffffffff168152602001908152602001600020600084815260200190815260200160002060008373ffffffffffffffffffffffffffffffffffffffff1673ffffffffffffffffffffffffffffffffffffffff16815260200190815260200160002060009054906101000a900460ff1690509392505050565b6060600260008373ffffffffffffffffffffffffffffffffffffffff1673ffffffffffffffffffffffffffffffffffffffff16815260200190815260200160002060009054906101000a900460ff16610390576040517f08c379a000000000000000000000000000000000000000000000000000000000815260040161038790611eaf565b60405180910390fd5b600160008373ffffffffffffffffffffffffffffffffffffffff1673ffffffffffffffffffffffffffffffffffffffff16815260200190815260200160002080546103da90611efe565b80601f016020809104026020016040519081016040528092919081815260200182805461040690611efe565b80156104535780601f1061042857610100808354040283529160200191610453565b820191906000526020600020905b81548152906001019060200180831161043657829003601f168201915b50505050509050919050565b610467611557565b600260008273ffffffffffffffffffffffffffffffffffffffff1673ffffffffffffffffffffffffffffffffffffffff16815260200190815260200160002060009054906101000a900460ff166104f3576040517f08c379a00000000000000000000000000000000000000000000000000000000081526004016104ea90611eaf565b60405180910390fd5b600160008273ffffffffffffffffffffffffffffffffffffffff1673ffffffffffffffffffffffffffffffffffffffff168152602001908152602001600020600061053e91906116aa565b6000600260008373ffffffffffffffffffffffffffffffffffffffff1673ffffffffffffffffffffffffffffffffffffffff16815260200190815260200160002060006101000a81548160ff0219169083151502179055508073ffffffffffffffffffffffffffffffffffffffff167f20d9fd07bbd00e4a433ed178933ceba43026f9bf250f4bdeac61de8f247b062560405160405180910390a250565b600260003373ffffffffffffffffffffffffffffffffffffffff1673ffffffffffffffffffffffffffffffffffffffff16815260200190815260200160002060009054906101000a900460ff16610668576040517f08c379a000000000000000000000000000000000000000000000000000000000815260040161065f90611fa1565b60405180910390fd5b600073ffffffffffffffffffffffffffffffffffffffff168573ffffffffffffffffffffffffffffffffffffffff16036106d7576040517f08c379a00000000000000000000000000000000000000000000000000000000081526004016106ce9061200d565b60405180910390fd5b81819050848490501461071f576040517f08c379a000000000000000000000000000000000000000000000000000000000815260040161071690612079565b60405180910390fd5b60008484905011610765576040517f08c379a000000000000000000000000000000000000000000000000000000000815260040161075c906120e5565b60405180910390fd5b60328484905011156107ac576040517f08c379a00000000000000000000000000000000000000000000000000000000081526004016107a390612151565b60405180910390fd5b60005b84849050811015610b89576000801b8585838181106107d1576107d0612171565b5b9050602002013503610818576040517f08c379a000000000000000000000000000000000000000000000000000000000815260040161080f906121ec565b60405180910390fd5b600083838381811061082d5761082c612171565b5b905060200281019061083f919061221b565b905011610881576040517f08c379a0000000000000000000000000000000000000000000000000000000008152600401610878906122ca565b60405180910390fd5b600060405180608001604052808787858181106108a1576108a0612171565b5b9050602002013581526020013373ffffffffffffffffffffffffffffffffffffffff1681526020018585858181106108dc576108db612171565b5b90506020028101906108ee919061221b565b8080601f016020809104026020016040519081016040528093929190818152602001838380828437600081840152601f19601f820116905080830192505050505050508152602001428152509050600360008873ffffffffffffffffffffffffffffffffffffffff1673ffffffffffffffffffffffffffffffffffffffff1681526020019081526020016000208190806001815401808255809150506001900390600052602060002090600402016000909190919091506000820151816000015560208201518160010160006101000a81548173ffffffffffffffffffffffffffffffffffffffff021916908373ffffffffffffffffffffffffffffffffffffffff1602179055506040820151816002019081610a0b91906124c5565b506060820151816003015550506001600460008973ffffffffffffffffffffffffffffffffffffffff1673ffffffffffffffffffffffffffffffffffffffff1681526020019081526020016000206000888886818110610a6e57610a6d612171565b5b90506020020135815260200190815260200160002060003373ffffffffffffffffffffffffffffffffffffffff1673ffffffffffffffffffffffffffffffffffffffff16815260200190815260200160002060006101000a81548160ff021916908315150217905550858583818110610aea57610ae9612171565b5b905060200201353373ffffffffffffffffffffffffffffffffffffffff168873ffffffffffffffffffffffffffffffffffffffff167f22d11abc5c4783036cce6a18a3e0ebccf122603a964dfc7c0d832edb8a6e51fc878787818110610b5357610b52612171565b5b9050602002810190610b65919061221b565b604051610b739291906125d3565b60405180910390a45080806001019150506107af565b505050505050565b610b99611557565b610ba360006115de565b565b600260003373ffffffffffffffffffffffffffffffffffffffff1673ffffffffffffffffffffffffffffffffffffffff16815260200190815260200160002060009054906101000a900460ff16610c31576040517f08c379a0000000000000000000000000000000000000000000000000000000008152600401610c2890611fa1565b60405180910390fd5b600073ffffffffffffffffffffffffffffffffffffffff168473ffffffffffffffffffffffffffffffffffffffff1603610ca0576040517f08c379a0000000000000000000000000000000000000000000000000000000008152600401610c979061200d565b60405180910390fd5b6000801b8303610ce5576040517f08c379a0000000000000000000000000000000000000000000000000000000008152600401610cdc906121ec565b60405180910390fd5b60008282905011610d2b576040517f08c379a0000000000000000000000000000000000000000000000000000000008152600401610d22906122ca565b60405180910390fd5b600060405180608001604052808581526020013373ffffffffffffffffffffffffffffffffffffffff16815260200184848080601f016020809104026020016040519081016040528093929190818152602001838380828437600081840152601f19601f820116905080830192505050505050508152602001428152509050600360008673ffffffffffffffffffffffffffffffffffffffff1673ffffffffffffffffffffffffffffffffffffffff1681526020019081526020016000208190806001815401808255809150506001900390600052602060002090600402016000909190919091506000820151816000015560208201518160010160006101000a81548173ffffffffffffffffffffffffffffffffffffffff021916908373ffffffffffffffffffffffffffffffffffffffff1602179055506040820151816002019081610e7991906124c5565b506060820151816003015550506001600460008773ffffffffffffffffffffffffffffffffffffffff1673ffffffffffffffffffffffffffffffffffffffff168152602001908152602001600020600086815260200190815260200160002060003373ffffffffffffffffffffffffffffffffffffffff1673ffffffffffffffffffffffffffffffffffffffff16815260200190815260200160002060006101000a81548160ff021916908315150217905550833373ffffffffffffffffffffffffffffffffffffffff168673ffffffffffffffffffffffffffffffffffffffff167f22d11abc5c4783036cce6a18a3e0ebccf122603a964dfc7c0d832edb8a6e51fc8686604051610f8c9291906125d3565b60405180910390a45050505050565b60008060009054906101000a900473ffffffffffffffffffffffffffffffffffffffff16905090565b6000600260008373ffffffffffffffffffffffffffffffffffffffff1673ffffffffffffffffffffffffffffffffffffffff16815260200190815260200160002060009054906101000a900460ff169050919050565b60606000600360008673ffffffffffffffffffffffffffffffffffffffff1673ffffffffffffffffffffffffffffffffffffffff1681526020019081526020016000209050808054905084106110c757600067ffffffffffffffff811115611085576110846122ea565b5b6040519080825280602002602001820160405280156110be57816020015b6110ab6116ea565b8152602001906001900390816110a35790505b509150506112c5565b600083856110d59190612626565b905081805490508111156110eb57818054905090505b600085826110f9919061265a565b905060008167ffffffffffffffff811115611117576111166122ea565b5b60405190808252806020026020018201604052801561115057816020015b61113d6116ea565b8152602001906001900390816111355790505b50905060005b828110156112bc5784818961116b9190612626565b8154811061117c5761117b612171565b5b9060005260206000209060040201604051806080016040529081600082015481526020016001820160009054906101000a900473ffffffffffffffffffffffffffffffffffffffff1673ffffffffffffffffffffffffffffffffffffffff1673ffffffffffffffffffffffffffffffffffffffff16815260200160028201805461120590611efe565b80601f016020809104026020016040519081016040528092919081815260200182805461123190611efe565b801561127e5780601f106112535761010080835404028352916020019161127e565b820191906000526020600020905b81548152906001019060200180831161126157829003601f168201915b505050505081526020016003820154815250508282815181106112a4576112a3612171565b5b60200260200101819052508080600101915050611156565b50809450505050505b9392505050565b6112d4611557565b600073ffffffffffffffffffffffffffffffffffffffff168373ffffffffffffffffffffffffffffffffffffffff1603611343576040517f08c379a000000000000000000000000000000000000000000000000000000000815260040161133a906126da565b60405180910390fd5b60008282905011611389576040517f08c379a000000000000000000000000000000000000000000000000000000000815260040161138090612746565b60405180910390fd5b8181600160008673ffffffffffffffffffffffffffffffffffffffff1673ffffffffffffffffffffffffffffffffffffffff16815260200190815260200160002091826113d7929190612771565b506001600260008573ffffffffffffffffffffffffffffffffffffffff1673ffffffffffffffffffffffffffffffffffffffff16815260200190815260200160002060006101000a81548160ff0219169083151502179055508273ffffffffffffffffffffffffffffffffffffffff167fae974f383c3686aec0ac687e9dc78f9570f074bfe7cad378d4745cb24f7be0cf83836040516114789291906125d3565b60405180910390a2505050565b6000600360008373ffffffffffffffffffffffffffffffffffffffff1673ffffffffffffffffffffffffffffffffffffffff168152602001908152602001600020805490509050919050565b6114d9611557565b600073ffffffffffffffffffffffffffffffffffffffff168173ffffffffffffffffffffffffffffffffffffffff160361154b5760006040517f1e4fbdf70000000000000000000000000000000000000000000000000000000081526004016115429190611b77565b60405180910390fd5b611554816115de565b50565b61155f6116a2565b73ffffffffffffffffffffffffffffffffffffffff1661157d610f9b565b73ffffffffffffffffffffffffffffffffffffffff16146115dc576115a06116a2565b6040517f118cdaa70000000000000000000000000000000000000000000000000000000081526004016115d39190611b77565b60405180910390fd5b565b60008060009054906101000a900473ffffffffffffffffffffffffffffffffffffffff169050816000806101000a81548173ffffffffffffffffffffffffffffffffffffffff021916908373ffffffffffffffffffffffffffffffffffffffff1602179055508173ffffffffffffffffffffffffffffffffffffffff168173ffffffffffffffffffffffffffffffffffffffff167f8be0079c531659141344cd1fd0a4f28419497f9722a3daafe3b4186f6b6457e060405160405180910390a35050565b600033905090565b5080546116b690611efe565b6000825580601f106116c857506116e7565b601f0160209004906000526020600020908101906116e6919061172b565b5b50565b604051806080016040528060008019168152602001600073ffffffffffffffffffffffffffffffffffffffff16815260200160608152602001600081525090565b5b8082111561174457600081600090555060010161172c565b5090565b600080fd5b600080fd5b600073ffffffffffffffffffffffffffffffffffffffff82169050919050565b600061177d82611752565b9050919050565b61178d81611772565b811461179857600080fd5b50565b6000813590506117aa81611784565b92915050565b6000819050919050565b6117c3816117b0565b81146117ce57600080fd5b50565b6000813590506117e0816117ba565b92915050565b6000806000606084860312156117ff576117fe611748565b5b600061180d8682870161179b565b935050602061181e868287016117d1565b925050604061182f8682870161179b565b9150509250925092565b60008115159050919050565b61184e81611839565b82525050565b60006020820190506118696000830184611845565b92915050565b60006020828403121561188557611884611748565b5b60006118938482850161179b565b91505092915050565b600081519050919050565b600082825260208201905092915050565b60005b838110156118d65780820151818401526020810190506118bb565b60008484015250505050565b6000601f19601f8301169050919050565b60006118fe8261189c565b61190881856118a7565b93506119188185602086016118b8565b611921816118e2565b840191505092915050565b6000602082019050818103600083015261194681846118f3565b905092915050565b600080fd5b600080fd5b600080fd5b60008083601f8401126119735761197261194e565b5b8235905067ffffffffffffffff8111156119905761198f611953565b5b6020830191508360208202830111156119ac576119ab611958565b5b9250929050565b60008083601f8401126119c9576119c861194e565b5b8235905067ffffffffffffffff8111156119e6576119e5611953565b5b602083019150836020820283011115611a0257611a01611958565b5b9250929050565b600080600080600060608688031215611a2557611a24611748565b5b6000611a338882890161179b565b955050602086013567ffffffffffffffff811115611a5457611a5361174d565b5b611a608882890161195d565b9450945050604086013567ffffffffffffffff811115611a8357611a8261174d565b5b611a8f888289016119b3565b92509250509295509295909350565b60008083601f840112611ab457611ab361194e565b5b8235905067ffffffffffffffff811115611ad157611ad0611953565b5b602083019150836001820283011115611aed57611aec611958565b5b9250929050565b60008060008060608587031215611b0e57611b0d611748565b5b6000611b1c8782880161179b565b9450506020611b2d878288016117d1565b935050604085013567ffffffffffffffff811115611b4e57611b4d61174d565b5b611b5a87828801611a9e565b925092505092959194509250565b611b7181611772565b82525050565b6000602082019050611b8c6000830184611b68565b92915050565b6000819050919050565b611ba581611b92565b8114611bb057600080fd5b50565b600081359050611bc281611b9c565b92915050565b600080600060608486031215611be157611be0611748565b5b6000611bef8682870161179b565b9350506020611c0086828701611bb3565b9250506040611c1186828701611bb3565b9150509250925092565b600081519050919050565b600082825260208201905092915050565b6000819050602082019050919050565b611c50816117b0565b82525050565b611c5f81611772565b82525050565b600082825260208201905092915050565b6000611c818261189c565b611c8b8185611c65565b9350611c9b8185602086016118b8565b611ca4816118e2565b840191505092915050565b611cb881611b92565b82525050565b6000608083016000830151611cd66000860182611c47565b506020830151611ce96020860182611c56565b5060408301518482036040860152611d018282611c76565b9150506060830151611d166060860182611caf565b508091505092915050565b6000611d2d8383611cbe565b905092915050565b6000602082019050919050565b6000611d4d82611c1b565b611d578185611c26565b935083602082028501611d6985611c37565b8060005b85811015611da55784840389528151611d868582611d21565b9450611d9183611d35565b925060208a01995050600181019050611d6d565b50829750879550505050505092915050565b60006020820190508181036000830152611dd18184611d42565b905092915050565b600080600060408486031215611df257611df1611748565b5b6000611e008682870161179b565b935050602084013567ffffffffffffffff811115611e2157611e2061174d565b5b611e2d86828701611a9e565b92509250509250925092565b611e4281611b92565b82525050565b6000602082019050611e5d6000830184611e39565b92915050565b7f53657276696365206e6f7420617574686f72697a656400000000000000000000600082015250565b6000611e996016836118a7565b9150611ea482611e63565b602082019050919050565b60006020820190508181036000830152611ec881611e8c565b9050919050565b7f4e487b7100000000000000000000000000000000000000000000000000000000600052602260045260246000fd5b60006002820490506001821680611f1657607f821691505b602082108103611f2957611f28611ecf565b5b50919050565b7f4f6e6c7920617574686f72697a656420656d657267656e63792073657276696360008201527f6573000000000000000000000000000000000000000000000000000000000000602082015250565b6000611f8b6022836118a7565b9150611f9682611f2f565b604082019050919050565b60006020820190508181036000830152611fba81611f7e565b9050919050565b7f496e76616c696420757365722061646472657373000000000000000000000000600082015250565b6000611ff76014836118a7565b915061200282611fc1565b602082019050919050565b6000602082019050818103600083015261202681611fea565b9050919050565b7f417272617973206c656e677468206d69736d6174636800000000000000000000600082015250565b60006120636016836118a7565b915061206e8261202d565b602082019050919050565b6000602082019050818103600083015261209281612056565b9050919050565b7f456d707479206172726179730000000000000000000000000000000000000000600082015250565b60006120cf600c836118a7565b91506120da82612099565b602082019050919050565b600060208201905081810360008301526120fe816120c2565b9050919050565b7f42617463682073697a6520746f6f206c61726765000000000000000000000000600082015250565b600061213b6014836118a7565b915061214682612105565b602082019050919050565b6000602082019050818103600083015261216a8161212e565b9050919050565b7f4e487b7100000000000000000000000000000000000000000000000000000000600052603260045260246000fd5b7f496e76616c6964206c6f636174696f6e20686173680000000000000000000000600082015250565b60006121d66015836118a7565b91506121e1826121a0565b602082019050919050565b60006020820190508181036000830152612205816121c9565b9050919050565b600080fd5b600080fd5b600080fd5b600080833560016020038436030381126122385761223761220c565b5b80840192508235915067ffffffffffffffff82111561225a57612259612211565b5b60208301925060018202360383131561227657612275612216565b5b509250929050565b7f496e636964656e742049442063616e6e6f7420626520656d7074790000000000600082015250565b60006122b4601b836118a7565b91506122bf8261227e565b602082019050919050565b600060208201905081810360008301526122e3816122a7565b9050919050565b7f4e487b7100000000000000000000000000000000000000000000000000000000600052604160045260246000fd5b60008190508160005260206000209050919050565b60006020601f8301049050919050565b600082821b905092915050565b60006008830261237b7fffffffffffffffffffffffffffffffffffffffffffffffffffffffffffffffff8261233e565b612385868361233e565b95508019841693508086168417925050509392505050565b6000819050919050565b60006123c26123bd6123b884611b92565b61239d565b611b92565b9050919050565b6000819050919050565b6123dc836123a7565b6123f06123e8826123c9565b84845461234b565b825550505050565b600090565b6124056123f8565b6124108184846123d3565b505050565b5b81811015612434576124296000826123fd565b600181019050612416565b5050565b601f8211156124795761244a81612319565b6124538461232e565b81016020851015612462578190505b61247661246e8561232e565b830182612415565b50505b505050565b600082821c905092915050565b600061249c6000198460080261247e565b1980831691505092915050565b60006124b5838361248b565b9150826002028217905092915050565b6124ce8261189c565b67ffffffffffffffff8111156124e7576124e66122ea565b5b6124f18254611efe565b6124fc828285612438565b600060209050601f83116001811461252f576000841561251d578287015190505b61252785826124a9565b86555061258f565b601f19841661253d86612319565b60005b8281101561256557848901518255600182019150602085019450602081019050612540565b86831015612582578489015161257e601f89168261248b565b8355505b6001600288020188555050505b505050505050565b82818337600083830152505050565b60006125b283856118a7565b93506125bf838584612597565b6125c8836118e2565b840190509392505050565b600060208201905081810360008301526125ee8184866125a6565b90509392505050565b7f4e487b7100000000000000000000000000000000000000000000000000000000600052601160045260246000fd5b600061263182611b92565b915061263c83611b92565b9250828201905080821115612654576126536125f7565b5b92915050565b600061266582611b92565b915061267083611b92565b9250828203905081811115612688576126876125f7565b5b92915050565b7f496e76616c696420736572766963652061646472657373000000000000000000600082015250565b60006126c46017836118a7565b91506126cf8261268e565b602082019050919050565b600060208201905081810360008301526126f3816126b7565b9050919050565b7f536572766963652049442063616e6e6f7420626520656d707479000000000000600082015250565b6000612730601a836118a7565b915061273b826126fa565b602082019050919050565b6000602082019050818103600083015261275f81612723565b9050919050565b600082905092915050565b61277b8383612766565b67ffffffffffffffff811115612794576127936122ea565b5b61279e8254611efe565b6127a9828285612438565b6000601f8311600181146127d857600084156127c6578287013590505b6127d085826124a9565b865550612838565b601f1984166127e686612319565b60005b8281101561280e578489013582556001820191506020850194506020810190506127e9565b8683101561282b5784890135612827601f89168261248b565b8355505b6001600288020188555050505b5050505050505056fea2646970667358221220d580dd2de625fa3bc6f311f74ef3adc1600d0351d7c324c54dacbc3d7d816d6564736f6c63430008180033",
  "linkReferences": {},
  "deployedLinkReferences": {}
}